{
  "_format": "hh-sol-artifact-1",
  "contractName": "TokenTransferor",
  "sourceName": "contracts/TokenTransferor.sol",
  "abi": [
    {
      "inputs": [
        {
          "internalType": "address",
          "name": "_router",
          "type": "address"
        },
        {
          "internalType": "address",
          "name": "_link",
          "type": "address"
        }
      ],
      "stateMutability": "nonpayable",
      "type": "constructor"
    },
    {
      "inputs": [
        {
          "internalType": "uint64",
          "name": "destinationChainSelector",
          "type": "uint64"
        }
      ],
      "name": "DestinationChainNotAllowlisted",
      "type": "error"
    },
    {
      "inputs": [
        {
          "internalType": "address",
          "name": "owner",
          "type": "address"
        },
        {
          "internalType": "address",
          "name": "target",
          "type": "address"
        },
        {
          "internalType": "uint256",
          "name": "value",
          "type": "uint256"
        }
      ],
      "name": "FailedToWithdrawEth",
      "type": "error"
    },
    {
      "inputs": [
        {
          "internalType": "uint256",
          "name": "currentBalance",
          "type": "uint256"
        },
        {
          "internalType": "uint256",
          "name": "calculatedFees",
          "type": "uint256"
        }
      ],
      "name": "NotEnoughBalance",
      "type": "error"
    },
    {
      "inputs": [],
      "name": "NothingToWithdraw",
      "type": "error"
    },
    {
      "anonymous": false,
      "inputs": [
        {
          "indexed": true,
          "internalType": "address",
          "name": "from",
          "type": "address"
        },
        {
          "indexed": true,
          "internalType": "address",
          "name": "to",
          "type": "address"
        }
      ],
      "name": "OwnershipTransferRequested",
      "type": "event"
    },
    {
      "anonymous": false,
      "inputs": [
        {
          "indexed": true,
          "internalType": "address",
          "name": "from",
          "type": "address"
        },
        {
          "indexed": true,
          "internalType": "address",
          "name": "to",
          "type": "address"
        }
      ],
      "name": "OwnershipTransferred",
      "type": "event"
    },
    {
      "anonymous": false,
      "inputs": [
        {
          "indexed": true,
          "internalType": "bytes32",
          "name": "messageId",
          "type": "bytes32"
        },
        {
          "indexed": true,
          "internalType": "uint64",
          "name": "destinationChainSelector",
          "type": "uint64"
        },
        {
          "indexed": false,
          "internalType": "address",
          "name": "receiver",
          "type": "address"
        },
        {
          "indexed": false,
          "internalType": "address",
          "name": "token",
          "type": "address"
        },
        {
          "indexed": false,
          "internalType": "uint256",
          "name": "tokenAmount",
          "type": "uint256"
        },
        {
          "indexed": false,
          "internalType": "address",
          "name": "feeToken",
          "type": "address"
        },
        {
          "indexed": false,
          "internalType": "uint256",
          "name": "fees",
          "type": "uint256"
        }
      ],
      "name": "TokensTransferred",
      "type": "event"
    },
    {
      "inputs": [],
      "name": "acceptOwnership",
      "outputs": [],
      "stateMutability": "nonpayable",
      "type": "function"
    },
    {
      "inputs": [
        {
          "internalType": "uint64",
          "name": "_destinationChainSelector",
          "type": "uint64"
        },
        {
          "internalType": "bool",
          "name": "allowed",
          "type": "bool"
        }
      ],
      "name": "allowlistDestinationChain",
      "outputs": [],
      "stateMutability": "nonpayable",
      "type": "function"
    },
    {
      "inputs": [
        {
          "internalType": "uint64",
          "name": "",
          "type": "uint64"
        }
      ],
      "name": "allowlistedChains",
      "outputs": [
        {
          "internalType": "bool",
          "name": "",
          "type": "bool"
        }
      ],
      "stateMutability": "view",
      "type": "function"
    },
    {
      "inputs": [],
      "name": "owner",
      "outputs": [
        {
          "internalType": "address",
          "name": "",
          "type": "address"
        }
      ],
      "stateMutability": "view",
      "type": "function"
    },
    {
      "inputs": [
        {
          "internalType": "address",
          "name": "to",
          "type": "address"
        }
      ],
      "name": "transferOwnership",
      "outputs": [],
      "stateMutability": "nonpayable",
      "type": "function"
    },
    {
      "inputs": [
        {
          "internalType": "uint64",
          "name": "_destinationChainSelector",
          "type": "uint64"
        },
        {
          "internalType": "address",
          "name": "_receiver",
          "type": "address"
        },
        {
          "internalType": "address",
          "name": "_token",
          "type": "address"
        },
        {
          "internalType": "uint256",
          "name": "_amount",
          "type": "uint256"
        }
      ],
      "name": "transferTokensPayLINK",
      "outputs": [
        {
          "internalType": "bytes32",
          "name": "messageId",
          "type": "bytes32"
        }
      ],
      "stateMutability": "nonpayable",
      "type": "function"
    },
    {
      "inputs": [
        {
          "internalType": "uint64",
          "name": "_destinationChainSelector",
          "type": "uint64"
        },
        {
          "internalType": "address",
          "name": "_receiver",
          "type": "address"
        },
        {
          "internalType": "address",
          "name": "_token",
          "type": "address"
        },
        {
          "internalType": "uint256",
          "name": "_amount",
          "type": "uint256"
        }
      ],
      "name": "transferTokensPayNative",
      "outputs": [
        {
          "internalType": "bytes32",
          "name": "messageId",
          "type": "bytes32"
        }
      ],
      "stateMutability": "nonpayable",
      "type": "function"
    },
    {
      "inputs": [
        {
          "internalType": "address",
          "name": "_beneficiary",
          "type": "address"
        }
      ],
      "name": "withdraw",
      "outputs": [],
      "stateMutability": "nonpayable",
      "type": "function"
    },
    {
      "inputs": [
        {
          "internalType": "address",
          "name": "_beneficiary",
          "type": "address"
        },
        {
          "internalType": "address",
          "name": "_token",
          "type": "address"
        }
      ],
      "name": "withdrawToken",
      "outputs": [],
      "stateMutability": "nonpayable",
      "type": "function"
    },
    {
      "stateMutability": "payable",
      "type": "receive"
    }
  ],
  "bytecode": "0x60806040523480156200001157600080fd5b506040516200122a3803806200122a8339810160408190526200003491620001bf565b33806000816200008b5760405162461bcd60e51b815260206004820152601860248201527f43616e6e6f7420736574206f776e657220746f207a65726f000000000000000060448201526064015b60405180910390fd5b600080546001600160a01b0319166001600160a01b0384811691909117909155811615620000be57620000be81620000f7565b5050600380546001600160a01b039485166001600160a01b031991821617909155600480549390941692169190911790915550620001f7565b336001600160a01b03821603620001515760405162461bcd60e51b815260206004820152601760248201527f43616e6e6f74207472616e7366657220746f2073656c66000000000000000000604482015260640162000082565b600180546001600160a01b0319166001600160a01b0383811691821790925560008054604051929316917fed8889f560326eb138920d842192f0eb3dd22b4f139c87a2c57538e05bae12789190a350565b80516001600160a01b0381168114620001ba57600080fd5b919050565b60008060408385031215620001d357600080fd5b620001de83620001a2565b9150620001ee60208401620001a2565b90509250929050565b61102380620002076000396000f3fe60806040526004361061008a5760003560e01c806379ba50971161005957806379ba50971461014b5780638da5cb5b1461016057806395e1402c1461018857806396d3b83d146101a8578063f2fde38b146101c857600080fd5b80630bb106eb146100965780633aeac4e1146100db57806351419b4b146100fd57806351cff8d91461012b57600080fd5b3661009157005b600080fd5b3480156100a257600080fd5b506100c66100b1366004610d67565b60026020526000908152604090205460ff1681565b60405190151581526020015b60405180910390f35b3480156100e757600080fd5b506100fb6100f6366004610da0565b6101e8565b005b34801561010957600080fd5b5061011d610118366004610dd3565b6102f7565b6040519081526020016100d2565b34801561013757600080fd5b506100fb610146366004610e1e565b610567565b34801561015757600080fd5b506100fb610623565b34801561016c57600080fd5b506000546040516001600160a01b0390911681526020016100d2565b34801561019457600080fd5b5061011d6101a3366004610dd3565b6106cd565b3480156101b457600080fd5b506100fb6101c3366004610e47565b610a94565b3480156101d457600080fd5b506100fb6101e3366004610e1e565b610ac8565b6101f0610adc565b6040516370a0823160e01b81523060048201526000906001600160a01b038316906370a0823190602401602060405180830381865afa158015610237573d6000803e3d6000fd5b505050506040513d601f19601f8201168201806040525081019061025b9190610e7e565b90508060000361027e57604051630686827b60e51b815260040160405180910390fd5b60405163a9059cbb60e01b81526001600160a01b0384811660048301526024820183905283169063a9059cbb906044016020604051808303816000875af11580156102cd573d6000803e3d6000fd5b505050506040513d601f19601f820116820180604052508101906102f19190610e97565b50505050565b6000610301610adc565b67ffffffffffffffff8516600090815260026020526040902054859060ff1661034e57604051630a503cdb60e01b815267ffffffffffffffff821660048201526024015b60405180910390fd5b600061035d8686866000610b31565b6003546040516320487ded60e01b81529192506000916001600160a01b03909116906320487ded90610395908b908690600401610efa565b602060405180830381865afa1580156103b2573d6000803e3d6000fd5b505050506040513d601f19601f820116820180604052508101906103d69190610e7e565b90504781111561040257604051634787a10360e11b815247600482015260248101829052604401610345565b60035460405163095ea7b360e01b81526001600160a01b039182166004820152602481018790529087169063095ea7b3906044016020604051808303816000875af1158015610455573d6000803e3d6000fd5b505050506040513d601f19601f820116820180604052508101906104799190610e97565b506003546040516396f4e9f960e01b81526001600160a01b03909116906396f4e9f99083906104ae908c908790600401610efa565b60206040518083038185885af11580156104cc573d6000803e3d6000fd5b50505050506040513d601f19601f820116820180604052508101906104f19190610e7e565b604080516001600160a01b03808b16825289166020820152908101879052600060608201526080810183905290945067ffffffffffffffff89169085907fc15fb748c32ba4eb29c1c311e78533f93b4425eab49ea87c6fe4279ecadca0439060a0015b60405180910390a3505050949350505050565b61056f610adc565b47600081900361059257604051630686827b60e51b815260040160405180910390fd5b6000826001600160a01b03168260405160006040518083038185875af1925050503d80600081146105df576040519150601f19603f3d011682016040523d82523d6000602084013e6105e4565b606091505b505090508061061e57604051639d11f56360e01b81523360048201526001600160a01b038416602482015260448101839052606401610345565b505050565b6001546001600160a01b031633146106765760405162461bcd60e51b815260206004820152601660248201527526bab9ba10313290383937b837b9b2b21037bbb732b960511b6044820152606401610345565b60008054336001600160a01b0319808316821784556001805490911690556040516001600160a01b0390921692909183917f8be0079c531659141344cd1fd0a4f28419497f9722a3daafe3b4186f6b6457e091a350565b60006106d7610adc565b67ffffffffffffffff8516600090815260026020526040902054859060ff1661071f57604051630a503cdb60e01b815267ffffffffffffffff82166004820152602401610345565b60045460009061073d908790879087906001600160a01b0316610b31565b6003546040516320487ded60e01b81529192506000916001600160a01b03909116906320487ded90610775908b908690600401610efa565b602060405180830381865afa158015610792573d6000803e3d6000fd5b505050506040513d601f19601f820116820180604052508101906107b69190610e7e565b600480546040516370a0823160e01b815230928101929092529192506001600160a01b03909116906370a0823190602401602060405180830381865afa158015610804573d6000803e3d6000fd5b505050506040513d601f19601f820116820180604052508101906108289190610e7e565b8111156108c057600480546040516370a0823160e01b815230928101929092526001600160a01b0316906370a0823190602401602060405180830381865afa158015610878573d6000803e3d6000fd5b505050506040513d601f19601f8201168201806040525081019061089c9190610e7e565b604051634787a10360e11b8152600481019190915260248101829052604401610345565b6004805460035460405163095ea7b360e01b81526001600160a01b039182169381019390935260248301849052169063095ea7b3906044016020604051808303816000875af1158015610917573d6000803e3d6000fd5b505050506040513d601f19601f8201168201806040525081019061093b9190610e97565b5060035460405163095ea7b360e01b81526001600160a01b039182166004820152602481018790529087169063095ea7b3906044016020604051808303816000875af115801561098f573d6000803e3d6000fd5b505050506040513d601f19601f820116820180604052508101906109b39190610e97565b506003546040516396f4e9f960e01b81526001600160a01b03909116906396f4e9f9906109e6908b908690600401610efa565b6020604051808303816000875af1158015610a05573d6000803e3d6000fd5b505050506040513d601f19601f82011682018060405250810190610a299190610e7e565b600454604080516001600160a01b03808c168252808b166020830152918101899052911660608201526080810183905290945067ffffffffffffffff89169085907fc15fb748c32ba4eb29c1c311e78533f93b4425eab49ea87c6fe4279ecadca0439060a001610554565b610a9c610adc565b67ffffffffffffffff919091166000908152600260205260409020805460ff1916911515919091179055565b610ad0610adc565b610ad981610ca1565b50565b6000546001600160a01b03163314610b2f5760405162461bcd60e51b815260206004820152601660248201527527b7363c9031b0b63630b1363290313c9037bbb732b960511b6044820152606401610345565b565b610b6c6040518060a0016040528060608152602001606081526020016060815260200160006001600160a01b03168152602001606081525090565b604080516001808252818301909252600091816020015b6040805180820190915260008082526020820152815260200190600190039081610b835790505090506040518060400160405280866001600160a01b031681526020018581525081600081518110610bdd57610bdd610fd7565b60209081029190910101526040805160a081019091526001600160a01b03871660c08201528060e081016040516020818303038152906040528152602001604051806020016040528060008152508152602001828152602001846001600160a01b03168152602001610c956040518060200160405280600081525060408051915160248084019190915281518084039091018152604490920190526020810180516001600160e01b03166397a657c960e01b17905290565b90529695505050505050565b336001600160a01b03821603610cf95760405162461bcd60e51b815260206004820152601760248201527f43616e6e6f74207472616e7366657220746f2073656c660000000000000000006044820152606401610345565b600180546001600160a01b0319166001600160a01b0383811691821790925560008054604051929316917fed8889f560326eb138920d842192f0eb3dd22b4f139c87a2c57538e05bae12789190a350565b803567ffffffffffffffff81168114610d6257600080fd5b919050565b600060208284031215610d7957600080fd5b610d8282610d4a565b9392505050565b80356001600160a01b0381168114610d6257600080fd5b60008060408385031215610db357600080fd5b610dbc83610d89565b9150610dca60208401610d89565b90509250929050565b60008060008060808587031215610de957600080fd5b610df285610d4a565b9350610e0060208601610d89565b9250610e0e60408601610d89565b9396929550929360600135925050565b600060208284031215610e3057600080fd5b610d8282610d89565b8015158114610ad957600080fd5b60008060408385031215610e5a57600080fd5b610e6383610d4a565b91506020830135610e7381610e39565b809150509250929050565b600060208284031215610e9057600080fd5b5051919050565b600060208284031215610ea957600080fd5b8151610d8281610e39565b6000815180845260005b81811015610eda57602081850181015186830182015201610ebe565b506000602082860101526020601f19601f83011685010191505092915050565b6000604067ffffffffffffffff851683526020604081850152845160a06040860152610f2960e0860182610eb4565b905081860151603f1980878403016060880152610f468383610eb4565b6040890151888203830160808a01528051808352908601945060009350908501905b80841015610f9a57845180516001600160a01b0316835286015186830152938501936001939093019290860190610f68565b5060608901516001600160a01b031660a08901526080890151888203830160c08a01529550610fc98187610eb4565b9a9950505050505050505050565b634e487b7160e01b600052603260045260246000fdfea26469706673582212206f2805bb54cc7185bdc003870c60dca0ed2be3ed058b15e9a9ef9326e4542d2064736f6c63430008160033",
  "linkReferences": {},
  "deployedLinkReferences": {}
}