{
    "_format": "hh-sol-artifact-1",
    "contractName": "TwoFactorFactory",
    "sourceName": "contracts/TwoFactorFactory.sol",
    "abi": [
        {
            "anonymous": false,
            "inputs": [
                {
                    "indexed": true,
                    "internalType": "address",
                    "name": "twoFactorAddress",
                    "type": "address"
                },
                {
                    "indexed": true,
                    "internalType": "address",
                    "name": "wallet",
                    "type": "address"
                }
            ],
            "name": "NewTwoFactor",
            "type": "event"
        },
        {
            "inputs": [
                {
                    "internalType": "address",
                    "name": "_owner1",
                    "type": "address"
                },
                {
                    "internalType": "address",
                    "name": "_owner2",
                    "type": "address"
                }
            ],
            "name": "createTwoFactor",
            "outputs": [],
            "stateMutability": "nonpayable",
            "type": "function"
        },
        {
            "inputs": [
                {
                    "internalType": "uint256",
                    "name": "",
                    "type": "uint256"
                }
            ],
            "name": "deployedTwoFactors",
            "outputs": [
                {
                    "internalType": "address",
                    "name": "",
                    "type": "address"
                }
            ],
            "stateMutability": "view",
            "type": "function"
        },
        {
            "inputs": [],
            "name": "getDeployedTwoFactors",
            "outputs": [
                {
                    "internalType": "address[]",
                    "name": "",
                    "type": "address[]"
                }
            ],
            "stateMutability": "view",
            "type": "function"
        },
        {
            "inputs": [],
            "name": "getTwoFactorForWallet",
            "outputs": [
                {
                    "internalType": "address",
                    "name": "",
                    "type": "address"
                }
            ],
            "stateMutability": "view",
            "type": "function"
        },
        {
            "inputs": [
                {
                    "internalType": "address",
                    "name": "",
                    "type": "address"
                }
            ],
            "name": "walletToTwoFactor",
            "outputs": [
                {
                    "internalType": "address",
                    "name": "",
                    "type": "address"
                }
            ],
            "stateMutability": "view",
            "type": "function"
        }
    ],
    "bytecode": "0x608060405234801561001057600080fd5b50610d1e806100206000396000f3fe608060405234801561001057600080fd5b50600436106100575760003560e01c806320e52cdd1461005c5780633c2daf9c146100715780636f91c09a146100b7578063902bd26a146100ca578063bf193527146100e8575b600080fd5b61006f61006a36600461029d565b6100fd565b005b61009a61007f3660046102d0565b6001602052600090815260409020546001600160a01b031681565b6040516001600160a01b0390911681526020015b60405180910390f35b61009a6100c53660046102f2565b6101e8565b336000908152600160205260409020546001600160a01b031661009a565b6100f0610212565b6040516100ae919061030b565b6000828260405161010d90610274565b6001600160a01b03928316815291166020820152604001604051809103906000f080158015610140573d6000803e3d6000fd5b5060008054600181810183557f290decd9548b62a8d60345a988386fc84ba6bc95484008f6362f93160ef3e56390910180546001600160a01b038086166001600160a01b0319928316811790935588811685526020939093526040808520805483168417905592871684528284208054909116821790559051929350339290917f2ecca1fb41407b2a8da8a759866421d5b498d571f7368ebc1216b07440218e4e91a3505050565b600081815481106101f857600080fd5b6000918252602090912001546001600160a01b0316905081565b6060600080548060200260200160405190810160405280929190818152602001828054801561026a57602002820191906000526020600020905b81546001600160a01b0316815260019091019060200180831161024c575b5050505050905090565b6109908061035983390190565b80356001600160a01b038116811461029857600080fd5b919050565b600080604083850312156102b057600080fd5b6102b983610281565b91506102c760208401610281565b90509250929050565b6000602082840312156102e257600080fd5b6102eb82610281565b9392505050565b60006020828403121561030457600080fd5b5035919050565b6020808252825182820181905260009190848201906040850190845b8181101561034c5783516001600160a01b031683529284019291840191600101610327565b5090969550505050505056fe60806040526040516109903803806109908339810160408190526100229161006f565b600080546001600160a01b039384166001600160a01b031991821617909155600180549290931691161790556100a2565b80516001600160a01b038116811461006a57600080fd5b919050565b6000806040838503121561008257600080fd5b61008b83610053565b915061009960208401610053565b90509250929050565b6108df806100b16000396000f3fe60806040526004361061007f5760003560e01c806383920e901161004e57806383920e90146101275780639ace38c214610149578063af640d0f146101a3578063c3fa3acf146101b957600080fd5b806312065fe01461008b578063242232d1146100ad57806352709725146100cf578063736889141461010757600080fd5b3661008657005b600080fd5b34801561009757600080fd5b50475b6040519081526020015b60405180910390f35b3480156100b957600080fd5b506100cd6100c836600461079e565b6101d9565b005b3480156100db57600080fd5b506001546100ef906001600160a01b031681565b6040516001600160a01b0390911681526020016100a4565b34801561011357600080fd5b506000546100ef906001600160a01b031681565b34801561013357600080fd5b5061013c6102ab565b6040516100a491906107b7565b34801561015557600080fd5b5061016961016436600461079e565b610352565b604080516001600160a01b03909616865260208601949094529115159284019290925290151560608301521515608082015260a0016100a4565b3480156101af57600080fd5b5061009a60025481565b3480156101c557600080fd5b5061009a6101d4366004610834565b6103a5565b6000546001600160a01b03163314806101fc57506001546001600160a01b031633145b61020557600080fd5b600354811061021357600080fd5b6000546001600160a01b031633036102615760016003828154811061023a5761023a61086c565b60009182526020909120600390910201600201805460ff191691151591909117905561029f565b6001600382815481106102765761027661086c565b906000526020600020906003020160020160016101000a81548160ff0219169083151502179055505b6102a881610567565b50565b60606003805480602002602001604051908101604052809291908181526020016000905b828210156103495760008481526020908190206040805160a0810182526003860290920180546001600160a01b031683526001808201548486015260029091015460ff80821615159385019390935261010081048316151560608501526201000090049091161515608083015290835290920191016102cf565b50505050905090565b6003818154811061036257600080fd5b60009182526020909120600390910201805460018201546002909201546001600160a01b03909116925060ff808216916101008104821691620100009091041685565b600080546001600160a01b03163314806103c957506001546001600160a01b031633145b6103d257600080fd5b6040805160a081018252600091810182905260608101829052608081018290526001600160a01b038581168252602082018590529154909116330361041d5760016040820152610425565b600160608201525b600380546001810182556000829052825191027fc2575a0e9e593c00f959f8c92f12db2869c3395a3b0502d05e2516446f71f85b810180546001600160a01b039384166001600160a01b03199091161790556020808401517fc2575a0e9e593c00f959f8c92f12db2869c3395a3b0502d05e2516446f71f85c8301556040808501517fc2575a0e9e593c00f959f8c92f12db2869c3395a3b0502d05e2516446f71f85d909301805460608088015160808901511515620100000262ff0000199115156101000261ff00199815159890981661ffff1990941693909317969096179590951617905580519388168452339184019190915282018590527f2e0cb4c0be5b0ff40edfd5704c8621d3b0745a1fa1c67aa45c617a8098771f37910160405180910390a16002805490600061055b83610882565b90915550949350505050565b6003818154811061057a5761057a61086c565b90600052602060002090600302016001015447101561059857600080fd5b600381815481106105ab576105ab61086c565b600091825260209091206002600390920201015460ff1680156105fc5750600381815481106105dc576105dc61086c565b906000526020600020906003020160020160019054906101000a900460ff165b61060557600080fd5b600381815481106106185761061861086c565b600091825260209091206003909102016002015462010000900460ff16151560010361064357600080fd5b600381815481106106565761065661086c565b600091825260209091206003918202015481546001600160a01b03909116916108fc91849081106106895761068961086c565b9060005260206000209060030201600101549081150290604051600060405180830381858888f193505050501580156106c6573d6000803e3d6000fd5b506001600382815481106106dc576106dc61086c565b906000526020600020906003020160020160026101000a81548160ff0219169083151502179055507fc0eb7a138362772da4d1d9adfe7f13a30f35b960c48ae439f3afcd4d08e81452600382815481106107385761073861086c565b600091825260209091206003918202015481546001600160a01b039091169190849081106107685761076861086c565b600091825260209182902060016003909202010154604080516001600160a01b039094168452918301520160405180910390a150565b6000602082840312156107b057600080fd5b5035919050565b602080825282518282018190526000919060409081850190868401855b8281101561082757815180516001600160a01b0316855286810151878601528581015115158686015260608082015115159086015260809081015115159085015260a090930192908501906001016107d4565b5091979650505050505050565b6000806040838503121561084757600080fd5b82356001600160a01b038116811461085e57600080fd5b946020939093013593505050565b634e487b7160e01b600052603260045260246000fd5b6000600182016108a257634e487b7160e01b600052601160045260246000fd5b506001019056fea2646970667358221220788d1f0d8c3e5c10e7f50bcb4f982378dbbcb08a1b2de72cd968c79374e6cdde64736f6c63430008160033a26469706673582212203cb8d0cc0f5ce76db544192d6eb24c069fb50d69da83aa56c289b892cf8de36264736f6c63430008160033",
    "linkReferences": {},
    "deployedLinkReferences": {}
}