{
  "_format": "hh-sol-artifact-1",
  "contractName": "TwoFactor",
  "sourceName": "contracts/TwoFactor.sol",
  "abi": [
    {
      "inputs": [
        {
          "internalType": "address",
          "name": "_owner1",
          "type": "address"
        },
        {
          "internalType": "address",
          "name": "_owner2",
          "type": "address"
        },
        {
          "internalType": "address",
          "name": "_ghoTransferContract",
          "type": "address"
        }
      ],
      "stateMutability": "payable",
      "type": "constructor"
    },
    {
      "anonymous": false,
      "inputs": [
        {
          "indexed": false,
          "internalType": "address",
          "name": "_to",
          "type": "address"
        },
        {
          "indexed": false,
          "internalType": "address",
          "name": "_from",
          "type": "address"
        },
        {
          "indexed": false,
          "internalType": "uint256",
          "name": "_amount",
          "type": "uint256"
        }
      ],
      "name": "NewInitiateTransaction",
      "type": "event"
    },
    {
      "anonymous": false,
      "inputs": [
        {
          "indexed": false,
          "internalType": "address",
          "name": "_to",
          "type": "address"
        },
        {
          "indexed": false,
          "internalType": "uint256",
          "name": "_amount",
          "type": "uint256"
        }
      ],
      "name": "NewWithdraw",
      "type": "event"
    },
    {
      "inputs": [
        {
          "internalType": "uint256",
          "name": "_id",
          "type": "uint256"
        }
      ],
      "name": "approveTransaction",
      "outputs": [],
      "stateMutability": "nonpayable",
      "type": "function"
    },
    {
      "inputs": [],
      "name": "getBalance",
      "outputs": [
        {
          "internalType": "uint256",
          "name": "",
          "type": "uint256"
        }
      ],
      "stateMutability": "view",
      "type": "function"
    },
    {
      "inputs": [],
      "name": "getContractBalanceGHO",
      "outputs": [
        {
          "internalType": "uint256",
          "name": "",
          "type": "uint256"
        }
      ],
      "stateMutability": "view",
      "type": "function"
    },
    {
      "inputs": [],
      "name": "getTransactions",
      "outputs": [
        {
          "components": [
            {
              "internalType": "address payable",
              "name": "to",
              "type": "address"
            },
            {
              "internalType": "uint256",
              "name": "amount",
              "type": "uint256"
            },
            {
              "internalType": "bool",
              "name": "signedByOwnerOne",
              "type": "bool"
            },
            {
              "internalType": "bool",
              "name": "signedByOwnerTwo",
              "type": "bool"
            },
            {
              "internalType": "bool",
              "name": "success",
              "type": "bool"
            }
          ],
          "internalType": "struct TwoFactor.Transaction[]",
          "name": "",
          "type": "tuple[]"
        }
      ],
      "stateMutability": "view",
      "type": "function"
    },
    {
      "inputs": [],
      "name": "id",
      "outputs": [
        {
          "internalType": "uint256",
          "name": "",
          "type": "uint256"
        }
      ],
      "stateMutability": "view",
      "type": "function"
    },
    {
      "inputs": [
        {
          "internalType": "address payable",
          "name": "_to",
          "type": "address"
        },
        {
          "internalType": "uint256",
          "name": "_amount",
          "type": "uint256"
        }
      ],
      "name": "initiateTransaction",
      "outputs": [
        {
          "internalType": "uint256",
          "name": "",
          "type": "uint256"
        }
      ],
      "stateMutability": "nonpayable",
      "type": "function"
    },
    {
      "inputs": [],
      "name": "owner1",
      "outputs": [
        {
          "internalType": "address",
          "name": "",
          "type": "address"
        }
      ],
      "stateMutability": "view",
      "type": "function"
    },
    {
      "inputs": [],
      "name": "owner2",
      "outputs": [
        {
          "internalType": "address",
          "name": "",
          "type": "address"
        }
      ],
      "stateMutability": "view",
      "type": "function"
    },
    {
      "inputs": [
        {
          "internalType": "uint256",
          "name": "",
          "type": "uint256"
        }
      ],
      "name": "transactions",
      "outputs": [
        {
          "internalType": "address payable",
          "name": "to",
          "type": "address"
        },
        {
          "internalType": "uint256",
          "name": "amount",
          "type": "uint256"
        },
        {
          "internalType": "bool",
          "name": "signedByOwnerOne",
          "type": "bool"
        },
        {
          "internalType": "bool",
          "name": "signedByOwnerTwo",
          "type": "bool"
        },
        {
          "internalType": "bool",
          "name": "success",
          "type": "bool"
        }
      ],
      "stateMutability": "view",
      "type": "function"
    },
    {
      "stateMutability": "payable",
      "type": "receive"
    }
  ],
  "bytecode": "0x6080604052604051610a9b380380610a9b83398101604081905261002291610080565b600180546001600160a01b039485166001600160a01b0319918216179091556002805493851693821693909317909255600080549190931691161790556100c3565b80516001600160a01b038116811461007b57600080fd5b919050565b60008060006060848603121561009557600080fd5b61009e84610064565b92506100ac60208501610064565b91506100ba60408501610064565b90509250925092565b6109c9806100d26000396000f3fe60806040526004361061008a5760003560e01c80637368891411610059578063736889141461012757806383920e90146101475780639ace38c214610169578063af640d0f146101c3578063c3fa3acf146101d957600080fd5b806312065fe014610096578063242232d1146100b8578063512b304a146100da57806352709725146100ef57600080fd5b3661009157005b600080fd5b3480156100a257600080fd5b50475b6040519081526020015b60405180910390f35b3480156100c457600080fd5b506100d86100d3366004610846565b6101f9565b005b3480156100e657600080fd5b506100a56102bd565b3480156100fb57600080fd5b5060025461010f906001600160a01b031681565b6040516001600160a01b0390911681526020016100af565b34801561013357600080fd5b5060015461010f906001600160a01b031681565b34801561015357600080fd5b5061015c61032f565b6040516100af919061085f565b34801561017557600080fd5b50610189610184366004610846565b6103d6565b604080516001600160a01b03909616865260208601949094529115159284019290925290151560608301521515608082015260a0016100af565b3480156101cf57600080fd5b506100a560035481565b3480156101e557600080fd5b506100a56101f43660046108dc565b610429565b6001546001600160a01b031633148061021c57506002546001600160a01b031633145b61022557600080fd5b6001546001600160a01b031633036102735760016004828154811061024c5761024c610914565b60009182526020909120600390910201600201805460ff19169115159190911790556102b1565b60016004828154811061028857610288610914565b906000526020600020906003020160020160016101000a81548160ff0219169083151502179055505b6102ba816105f1565b50565b600080546040516370a0823160e01b81523060048201526001600160a01b03909116906370a0823190602401602060405180830381865afa158015610306573d6000803e3d6000fd5b505050506040513d601f19601f8201168201806040525081019061032a919061092a565b905090565b60606004805480602002602001604051908101604052809291908181526020016000905b828210156103cd5760008481526020908190206040805160a0810182526003860290920180546001600160a01b031683526001808201548486015260029091015460ff8082161515938501939093526101008104831615156060850152620100009004909116151560808301529083529092019101610353565b50505050905090565b600481815481106103e657600080fd5b60009182526020909120600390910201805460018201546002909201546001600160a01b03909116925060ff808216916101008104821691620100009091041685565b6001546000906001600160a01b031633148061044f57506002546001600160a01b031633145b61045857600080fd5b6040805160a08101825260009181018290526060810182905260808101919091526001600160a01b038481168252602082018490526001541633036104a357600160408201526104ab565b600160608201525b6004805460018101825560009190915281517f8a35acfbc15ff81a39ae7d344fd709f28e8600b4aa8c65c6b64bfe7fe36bd19b600390920291820180546001600160a01b0319166001600160a01b039283161790556020808401517f8a35acfbc15ff81a39ae7d344fd709f28e8600b4aa8c65c6b64bfe7fe36bd19c8401556040808501517f8a35acfbc15ff81a39ae7d344fd709f28e8600b4aa8c65c6b64bfe7fe36bd19d9094018054606080880151608089015161ffff1990931697151561ff00191697909717610100971515979097029690961762ff00001916620100009115159190910217905580519288168352339183019190915281018590527f2e0cb4c0be5b0ff40edfd5704c8621d3b0745a1fa1c67aa45c617a8098771f37910160405180910390a1600380549060006105e583610943565b90915550949350505050565b6004818154811061060457610604610914565b600091825260208220600391909102016001015490546040516370a0823160e01b81523060048201526001600160a01b03909116906370a0823190602401602060405180830381865afa15801561065f573d6000803e3d6000fd5b505050506040513d601f19601f82011682018060405250810190610683919061092a565b10156106cc5760405162461bcd60e51b8152602060048201526014602482015273496e73756666696369656e742062616c616e636560601b604482015260640160405180910390fd5b600054600480546001600160a01b039092169163a9059cbb9190849081106106f6576106f6610914565b6000918252602090912060039091020154600480546001600160a01b03909216918590811061072757610727610914565b60009182526020909120600160039092020101546040516001600160e01b031960e085901b1681526001600160a01b03909216600483015260248201526044016020604051808303816000875af1158015610786573d6000803e3d6000fd5b505050506040513d601f19601f820116820180604052508101906107aa919061096a565b507fc0eb7a138362772da4d1d9adfe7f13a30f35b960c48ae439f3afcd4d08e81452600482815481106107df576107df610914565b6000918252602090912060039091020154600480546001600160a01b03909216918490811061081057610810610914565b600091825260209182902060016003909202010154604080516001600160a01b039094168452918301520160405180910390a150565b60006020828403121561085857600080fd5b5035919050565b602080825282518282018190526000919060409081850190868401855b828110156108cf57815180516001600160a01b0316855286810151878601528581015115158686015260608082015115159086015260809081015115159085015260a0909301929085019060010161087c565b5091979650505050505050565b600080604083850312156108ef57600080fd5b82356001600160a01b038116811461090657600080fd5b946020939093013593505050565b634e487b7160e01b600052603260045260246000fd5b60006020828403121561093c57600080fd5b5051919050565b60006001820161096357634e487b7160e01b600052601160045260246000fd5b5060010190565b60006020828403121561097c57600080fd5b8151801515811461098c57600080fd5b939250505056fea264697066735822122022ebaa738e87b2627abf17d587bacb80622cbe8a514dff1877feb8f772bfc28164736f6c63430008160033",
  "linkReferences": {},
  "deployedLinkReferences": {}
}