{
  "_format": "hh-sol-artifact-1",
  "contractName": "TwoFactorFactory",
  "sourceName": "contracts/TwoFactorFactory.sol",
  "abi": [
    {
      "inputs": [
        {
          "internalType": "address",
          "name": "_ghoTransferContract",
          "type": "address"
        }
      ],
      "stateMutability": "nonpayable",
      "type": "constructor"
    },
    {
      "anonymous": false,
      "inputs": [
        {
          "indexed": true,
          "internalType": "address",
          "name": "twoFactorAddress",
          "type": "address"
        },
        {
          "indexed": true,
          "internalType": "address",
          "name": "wallet",
          "type": "address"
        }
      ],
      "name": "NewTwoFactor",
      "type": "event"
    },
    {
      "inputs": [
        {
          "internalType": "address",
          "name": "_owner1",
          "type": "address"
        },
        {
          "internalType": "address",
          "name": "_owner2",
          "type": "address"
        }
      ],
      "name": "createTwoFactor",
      "outputs": [],
      "stateMutability": "nonpayable",
      "type": "function"
    },
    {
      "inputs": [
        {
          "internalType": "uint256",
          "name": "",
          "type": "uint256"
        }
      ],
      "name": "deployedTwoFactors",
      "outputs": [
        {
          "internalType": "address",
          "name": "",
          "type": "address"
        }
      ],
      "stateMutability": "view",
      "type": "function"
    },
    {
      "inputs": [],
      "name": "getDeployedTwoFactors",
      "outputs": [
        {
          "internalType": "address[]",
          "name": "",
          "type": "address[]"
        }
      ],
      "stateMutability": "view",
      "type": "function"
    },
    {
      "inputs": [],
      "name": "getTwoFactorForWallet",
      "outputs": [
        {
          "internalType": "address",
          "name": "",
          "type": "address"
        }
      ],
      "stateMutability": "view",
      "type": "function"
    },
    {
      "inputs": [],
      "name": "ghoTransferContract",
      "outputs": [
        {
          "internalType": "address",
          "name": "",
          "type": "address"
        }
      ],
      "stateMutability": "view",
      "type": "function"
    },
    {
      "inputs": [
        {
          "internalType": "address",
          "name": "",
          "type": "address"
        }
      ],
      "name": "walletToTwoFactor",
      "outputs": [
        {
          "internalType": "address",
          "name": "",
          "type": "address"
        }
      ],
      "stateMutability": "view",
      "type": "function"
    }
  ],
  "bytecode": "0x608060405234801561001057600080fd5b50604051610c8e380380610c8e83398101604081905261002f91610054565b600280546001600160a01b0319166001600160a01b0392909216919091179055610084565b60006020828403121561006657600080fd5b81516001600160a01b038116811461007d57600080fd5b9392505050565b610bfb806100936000396000f3fe608060405234801561001057600080fd5b50600436106100615760003560e01c806284b6fe1461006657806320e52cdd146100965780633c2daf9c146100ab5780636f91c09a146100d4578063902bd26a146100e7578063bf19352714610105575b600080fd5b600254610079906001600160a01b031681565b6040516001600160a01b0390911681526020015b60405180910390f35b6100a96100a43660046102d3565b61011a565b005b6100796100b9366004610306565b6001602052600090815260409020546001600160a01b031681565b6100796100e2366004610328565b61021e565b336000908152600160205260409020546001600160a01b0316610079565b61010d610248565b60405161008d9190610341565b600254604051600091849184916001600160a01b03169061013a906102aa565b6001600160a01b03938416815291831660208301529091166040820152606001604051809103906000f080158015610176573d6000803e3d6000fd5b5060008054600181810183557f290decd9548b62a8d60345a988386fc84ba6bc95484008f6362f93160ef3e56390910180546001600160a01b038086166001600160a01b0319928316811790935588811685526020939093526040808520805483168417905592871684528284208054909116821790559051929350339290917f2ecca1fb41407b2a8da8a759866421d5b498d571f7368ebc1216b07440218e4e91a3505050565b6000818154811061022e57600080fd5b6000918252602090912001546001600160a01b0316905081565b606060008054806020026020016040519081016040528092919081815260200182805480156102a057602002820191906000526020600020905b81546001600160a01b03168152600190910190602001808311610282575b5050505050905090565b6108378061038f83390190565b80356001600160a01b03811681146102ce57600080fd5b919050565b600080604083850312156102e657600080fd5b6102ef836102b7565b91506102fd602084016102b7565b90509250929050565b60006020828403121561031857600080fd5b610321826102b7565b9392505050565b60006020828403121561033a57600080fd5b5035919050565b6020808252825182820181905260009190848201906040850190845b818110156103825783516001600160a01b03168352928401929184019160010161035d565b5090969550505050505056fe608060405260405161083738038061083783398101604081905261002291610080565b600180546001600160a01b039485166001600160a01b0319918216179091556002805493851693821693909317909255600080549190931691161790556100c3565b80516001600160a01b038116811461007b57600080fd5b919050565b60008060006060848603121561009557600080fd5b61009e84610064565b92506100ac60208501610064565b91506100ba60408501610064565b90509250925092565b610765806100d26000396000f3fe6080604052600436106100895760003560e01c80637368891411610059578063736889141461013157806383920e90146101515780639ace38c214610173578063af640d0f146101cd578063c3fa3acf146101e357600080fd5b806284b6fe1461009557806312065fe0146100d2578063242232d1146100ef578063527097251461011157600080fd5b3661009057005b600080fd5b3480156100a157600080fd5b506000546100b5906001600160a01b031681565b6040516001600160a01b0390911681526020015b60405180910390f35b3480156100de57600080fd5b50475b6040519081526020016100c9565b3480156100fb57600080fd5b5061010f61010a366004610624565b610203565b005b34801561011d57600080fd5b506002546100b5906001600160a01b031681565b34801561013d57600080fd5b506001546100b5906001600160a01b031681565b34801561015d57600080fd5b506101666102c7565b6040516100c9919061063d565b34801561017f57600080fd5b5061019361018e366004610624565b61036e565b604080516001600160a01b03909616865260208601949094529115159284019290925290151560608301521515608082015260a0016100c9565b3480156101d957600080fd5b506100e160035481565b3480156101ef57600080fd5b506100e16101fe3660046106ba565b6103c1565b6001546001600160a01b031633148061022657506002546001600160a01b031633145b61022f57600080fd5b6001546001600160a01b0316330361027d57600160048281548110610256576102566106f2565b60009182526020909120600390910201600201805460ff19169115159190911790556102bb565b600160048281548110610292576102926106f2565b906000526020600020906003020160020160016101000a81548160ff0219169083151502179055505b6102c481610589565b50565b60606004805480602002602001604051908101604052809291908181526020016000905b828210156103655760008481526020908190206040805160a0810182526003860290920180546001600160a01b031683526001808201548486015260029091015460ff80821615159385019390935261010081048316151560608501526201000090049091161515608083015290835290920191016102eb565b50505050905090565b6004818154811061037e57600080fd5b60009182526020909120600390910201805460018201546002909201546001600160a01b03909116925060ff808216916101008104821691620100009091041685565b6001546000906001600160a01b03163314806103e757506002546001600160a01b031633145b6103f057600080fd5b6040805160a08101825260009181018290526060810182905260808101919091526001600160a01b0384811682526020820184905260015416330361043b5760016040820152610443565b600160608201525b6004805460018101825560009190915281517f8a35acfbc15ff81a39ae7d344fd709f28e8600b4aa8c65c6b64bfe7fe36bd19b600390920291820180546001600160a01b0319166001600160a01b039283161790556020808401517f8a35acfbc15ff81a39ae7d344fd709f28e8600b4aa8c65c6b64bfe7fe36bd19c8401556040808501517f8a35acfbc15ff81a39ae7d344fd709f28e8600b4aa8c65c6b64bfe7fe36bd19d9094018054606080880151608089015161ffff1990931697151561ff00191697909717610100971515979097029690961762ff00001916620100009115159190910217905580519288168352339183019190915281018590527f2e0cb4c0be5b0ff40edfd5704c8621d3b0745a1fa1c67aa45c617a8098771f37910160405180910390a16003805490600061057d83610708565b90915550949350505050565b7fc0eb7a138362772da4d1d9adfe7f13a30f35b960c48ae439f3afcd4d08e81452600482815481106105bd576105bd6106f2565b6000918252602090912060039091020154600480546001600160a01b0390921691849081106105ee576105ee6106f2565b600091825260209182902060016003909202010154604080516001600160a01b039094168452918301520160405180910390a150565b60006020828403121561063657600080fd5b5035919050565b602080825282518282018190526000919060409081850190868401855b828110156106ad57815180516001600160a01b0316855286810151878601528581015115158686015260608082015115159086015260809081015115159085015260a0909301929085019060010161065a565b5091979650505050505050565b600080604083850312156106cd57600080fd5b82356001600160a01b03811681146106e457600080fd5b946020939093013593505050565b634e487b7160e01b600052603260045260246000fd5b60006001820161072857634e487b7160e01b600052601160045260246000fd5b506001019056fea264697066735822122007bf69a115a82cfd61f62449095943d22aa0ab0d1dd320756690592f502d8c8164736f6c63430008160033a264697066735822122061bbcd2b20bd42c5ea492325619ac0dd42751ff7978d921dcc67628a4019c66364736f6c63430008160033",
  "linkReferences": {},
  "deployedLinkReferences": {}
}